:020000040800F2
:1000000000800020E147000831480008314800081E
:10001000314800083148000831480008000000005D
:10002000000000000000000000000000314800084F
:10003000314800080000000031480008151400088D
:1000400031480008314800083148000831480008AC
:10005000314800083148000831480008314800089C
:10006000314800083148000831480008314800088C
:10007000314800083148000831480008314800087C
:10008000314800083148000831480008314800086C
:10009000111D0008314800083148000831480008A7
:1000A000314800083148000831480008314800084C
:1000B000314800083148000831480008314800083C
:1000C000314800083148000831480008314800082C
:1000D000314800083148000831480008314800081C
:1000E000314800083148000831480008314800080C
:1000F00031480008314800083148000831480008FC
:10010000000000000000000000000000314800086E
:1001100031480008314800083148000831480008DB
:1001200031480008314800083148000831480008CB
:1001300031480008314800080000000000000000BD
:10014000314800083148000831480008000000002C
:10015000000000000000000000000000000000009F
:10016000000000000000000031480008314800088D
:1001700031480008000000000000000000000000FE
:080180000000000031480008F6
:10018800044B05481B1A062B02D9044B03B1184728
:10019800704700BFE7080020E408002000000000C6
:1001A80005490648091A891001EBD171491002D096
:1001B800034B03B118477047E4080020E408002007
:1001C8000000000010B5064C237843B9FFF7D8FFAC
:1001D800044B13B10448AFF300800123237010BD12
:1001E800E8080020000000000897000808B5084B40
:1001F8001BB108480849AFF300800848036813B9E1
:10020800BDE80840CCE7064B002BF9D09847F7E744
:100218000000000008970008EC080020E40800200F
:100228000000000000B502B4FFB4072004F0ACFAE7
:10023800FFBC2449086802BC00BD00BF00B52DE919
:10024800F00F20490868204B002803D0B0F5FA7F4A
:1002580006D01BE00BB4186800F01EF80BBC15E0C4
:100268004FF0000008600BB4186800F015F80BBCDC
:10027800154B1B6803F10103134C2360072B00DCAB
:1002880007E04FF00003104C236002E000F101008A
:100298000860BDE8F00F00BD2DE9F05F0B49096863
:1002A8000B884FF0010200F1080002FA00F283EA1D
:1002B80002030B80BDE8F05F704700BF00B500BDCA
:1002C80000B500BD00000020040000200800002048
:1002D80081F0004102E000BF83F0004330B54FEAEF
:1002E80041044FEA430594EA050F08BF90EA020F5C
:1002F8001FBF54EA000C55EA020C7FEA645C7FEAEF
:10030800655C00F0E2804FEA5454D4EB5555B8BF11
:100318006D420CDD2C4480EA020281EA030382EA82
:10032800000083EA010180EA020281EA0303362D14
:1003380088BF30BD11F0004F4FEA01314FF4801CE7
:100348004CEA113102D0404261EB410113F0004FF9
:100358004FEA03334CEA133302D0524263EB4303B0
:1003680094EA050F00F0A780A4F10104D5F1200E4E
:100378000DDB02FA0EFC22FA05F2801841F10001A9
:1003880003FA0EF2801843FA05F359410EE0A5F17D
:1003980020050EF1200E012A03FA0EFC28BF4CF0AE
:1003A800020C43FA05F3C01851EBE37101F0004564
:1003B80007D54FF0000EDCF1000C7EEB00006EEB71
:1003C8000101B1F5801F1BD3B1F5001F0CD34908FB
:1003D8005FEA30004FEA3C0C04F101044FEA445252
:1003E80012F5800F80F09A80BCF1004F08BF5FEAD9
:1003F800500C50F1000041EB045141EA050130BDB9
:100408005FEA4C0C404141EB010111F4801FA4F15B
:100418000104E9D191F0000F04BF01460020B1FAB0
:1004280081F308BF2033A3F10B03B3F120020CDAE8
:100438000C3208DD02F1140CC2F10C0201FA0CF0C6
:1004480021FA02F10CE002F11402D8BFC2F1200C2B
:1004580001FA02F120FA0CFCDCBF41EA0C019040E1
:10046800E41AA2BF01EB0451294330BD6FEA04042A
:100478001F3C1CDA0C340EDC04F11404C4F1200215
:1004880020FA04F001FA02F340EA030021FA04F327
:1004980045EA030130BDC4F10C04C4F1200220FA7E
:1004A80002F001FA04F340EA0300294630BD21FABC
:1004B80004F0294630BD94F0000F83F4801306BF82
:1004C80081F480110134013D4EE77FEA645C18BF76
:1004D8007FEA655C29D094EA050F08BF90EA020F0D
:1004E80005D054EA000C04BF1946104630BD91EA05
:1004F800030F1EBF0021002030BD5FEA545C05D108
:100508004000494128BF41F0004130BD14F5800446
:100518003CBF01F5801130BD01F0004545F0FE41BA
:1005280041F470014FF0000030BD7FEA645C1ABFEF
:10053800194610467FEA655C1CBF0B46024650EA26
:10054800013406BF52EA033591EA030F41F4002152
:1005580030BD00BF90F0000F04BF0021704730B5D8
:100568004FF4806404F132044FF000054FF00001AD
:1005780050E700BF90F0000F04BF0021704730B56E
:100588004FF4806404F1320410F0004548BF404243
:100598004FF000013EE700BF42004FEAE2014FEA98
:1005A80031014FEA02701FBF12F07F4393F07F4F73
:1005B80081F06051704792F0000F14BF93F07F4FA5
:1005C800704730B54FF4607401F0004521F00041E8
:1005D80020E700BF50EA010208BF704730B54FF06E
:1005E80000050AE050EA010208BF704730B511F073
:1005F800004502D5404261EB41014FF4806404F1AB
:1006080032045FEA915C3FF4DCAE4FF003025FEA2C
:10061800DC0C18BF03325FEADC0C18BF033202EBB4
:10062800DC02C2F1200300FA03FC20FA02F001FA0E
:1006380003FE40EA0E0021FA02F11444C1E600BFAD
:1006480070B54FF0FF0C4CF4E06C1CEA11541DBF60
:100658001CEA135594EA0C0F95EA0C0F00F0DEF82B
:100668002C4481EA030621EA4C5123EA4C5350EA10
:10067800013518BF52EA033541F4801143F4801361
:1006880038D0A0FB02CE4FF00005E1FB02E506F0F2
:100698000042E0FB03E54FF00006E1FB03569CF047
:1006A800000F18BF4EF0010EA4F1FF04B6F5007F4D
:1006B80064F5407404D25FEA4E0E6D4146EB0606BF
:1006C80042EAC62141EA55514FEAC52040EA5E5048
:1006D8004FEACE2EB4F1FD0C88BFBCF5E06F1ED8F2
:1006E800BEF1004F08BF5FEA500E50F1000041EB29
:1006F800045170BD06F0004646EA010140EA0200D6
:1007080081EA0301B4EB5C04C2BFD4EB0C0541EAF7
:10071800045170BD41F480114FF0000E013C00F30C
:10072800AB8014F1360FDEBF002001F0004170BD30
:10073800C4F10004203C35DA0C341BDC04F1140449
:10074800C4F1200500FA05F320FA04F001FA05F2D5
:1007580040EA020001F0004221F0004110EBD370A2
:1007680021FA04F642EB06015EEA430E08BF20EACE
:10077800D37070BDC4F10C04C4F1200500FA04F371
:1007880020FA05F001FA04F240EA020001F0004103
:1007980010EBD37041F100015EEA430E08BF20EA76
:1007A800D37070BDC4F1200500FA05F24EEA020EBE
:1007B80020FA04F301FA05F243EA020321FA04F0ED
:1007C80001F0004121FA04F220EA020000EBD370A4
:1007D8005EEA430E08BF20EAD37070BD94F0000FA4
:1007E8000FD101F00046400041EB010111F4801FD8
:1007F80008BF013CF7D041EA060195F0000F18BF89
:10080800704703F00046520043EB030313F4801FC4
:1008180008BF013DF7D043EA0603704794EA0C0F7E
:100828000CEA135518BF95EA0C0F0CD050EA410694
:1008380018BF52EA4306D1D181EA030101F0004111
:100848004FF0000070BD50EA410606BF1046194639
:1008580052EA430619D094EA0C0F02D150EA013645
:1008680013D195EA0C0F05D152EA03361CBF104686
:1008780019460AD181EA030101F0004141F0FE4125
:1008880041F470014FF0000070BD41F0FE4141F4A9
:10089800780170BD70B54FF0FF0C4CF4E06C1CEAA9
:1008A80011541DBF1CEA135594EA0C0F95EA0C0F5E
:1008B80000F0A7F8A4EB050481EA030E52EA033519
:1008C8004FEA013100F088804FEA03334FF080553A
:1008D80045EA131343EA12634FEA022245EA111567
:1008E80045EA10654FEA00260EF000419D4208BF18
:1008F800964244F1FD0404F5407402D25B084FEAC5
:100908003202B61A65EB03055B084FEA32024FF470
:1009180080104FF4002CB6EB020E75EB030E22BFCD
:10092800B61A754640EA0C005B084FEA3202B6EB8D
:10093800020E75EB030E22BFB61A754640EA5C003C
:100948005B084FEA3202B6EB020E75EB030E22BFCC
:10095800B61A754640EA9C005B084FEA3202B6EBCD
:10096800020E75EB030E22BFB61A754640EADC008C
:1009780055EA060E18D04FEA051545EA16754FEAEE
:1009880006164FEAC30343EA52734FEAC2025FEA0C
:100998001C1CC0D111F4801F0BD141EA00014FF09B
:1009A80000004FF0004CB6E711F4801F04BF01436C
:1009B8000020B4F1FD0C88BFBCF5E06F3FF6AFAE88
:1009C800B5EB030C04BFB6EB020C5FEA500C50F118
:1009D800000041EB045170BD0EF0004E4EEA11319B
:1009E80014EB5C04C2BFD4EB0C0541EA045170BDA2
:1009F80041F480114FF0000E013C90E645EA060EE6
:100A08008DE60CEA135594EA0C0F08BF95EA0C0F13
:100A18003FF43BAF94EA0C0F0AD150EA01347FF45B
:100A280034AF95EA0C0F7FF425AF104619462CE732
:100A380095EA0C0F06D152EA03353FF4FDAE104695
:100A4800194622E750EA410618BF52EA43067FF4E6
:100A5800C5AE50EA41047FF40DAF52EA43057FF476
:100A6800EBAE12E74FF0FF3C06E000BF4FF0010C81
:100A780002E000BF4FF0010C4DF804CD4FEA410CE5
:100A88007FEA6C5C4FEA430C18BF7FEA6C5C1BD0B2
:100A980001B050EA410C0CBF52EA430C91EA030F33
:100AA80002BF90EA020F0020704710F1000F91EA90
:100AB800030F58BF994208BF90422CBFD8176FEA5E
:100AC800E37040F0010070474FEA410C7FEA6C5C2C
:100AD80002D150EA013C07D14FEA430C7FEA6C5C33
:100AE800D6D152EA033CD3D05DF8040B704700BF5F
:100AF8008446104662468C461946634600E000BFAD
:100B080001B5FFF7B7FF002848BF10F1000F01BD7E
:100B18004DF808EDFFF7F4FF0CBF012000205DF849
:100B280008FB00BF4DF808EDFFF7EAFF34BF0120CE
:100B380000205DF808FB00BF4DF808EDFFF7E0FF67
:100B480094BF012000205DF808FB00BF4DF808EDB8
:100B5800FFF7CEFF94BF012000205DF808FB00BF1F
:100B68004DF808EDFFF7C4FF34BF012000205DF801
:100B780008FB00BF844641EA000313F003036DD16C
:100B8800403A41D351F8043B40F8043B51F8043B48
:100B980040F8043B51F8043B40F8043B51F8043B4F
:100BA80040F8043B51F8043B40F8043B51F8043B3F
:100BB80040F8043B51F8043B40F8043B51F8043B2F
:100BC80040F8043B51F8043B40F8043B51F8043B1F
:100BD80040F8043B51F8043B40F8043B51F8043B0F
:100BE80040F8043B51F8043B40F8043B51F8043BFF
:100BF80040F8043B51F8043B40F8043B51F8043BEF
:100C080040F8043B403ABDD2303211D351F8043B8E
:100C180040F8043B51F8043B40F8043B51F8043BCE
:100C280040F8043B51F8043B40F8043B103AEDD23D
:100C38000C3205D351F8043B40F8043B043AF9D28E
:100C4800043208D0D2071CBF11F8013B00F8013B61
:100C580001D30B8803806046704700BF082A13D36E
:100C68008B078DD010F003038AD0C3F10403D21A86
:100C7800DB071CBF11F8013B00F8013B80D331F8BA
:100C8800023B20F8023B7BE7043AD9D3013A11F83A
:100C9800013B00F8013BF9D20B7803704B784370A5
:100CA8008B788370604670474FEA410212F5001254
:100CB80015D211D56FF47873B3EB625212D94FEA9B
:100CC800C12343F0004343EA505311F0004F23FA85
:100CD80002F018BF404270474FF00000704750EADA
:100CE800013005D111F0004008BF6FF00040704797
:100CF8004FF00000704700BF53B94AB9002908BF38
:100D080000281CBF4FF0FF314FF0FF3000F03CB817
:100D180082B0EC462DE9005000F01EF8DDF804E042
:100D280002B00CBC704700BF2DE9F041069C154687
:100D380006460F46984600F029F805FB01F300FB2C
:100D48000838A5FB0023B21A434467EB0303C4E940
:100D58000023BDE8F08100BF2DE9F041069C9046D4
:100D680006460F461D4600F05FF900FB05F5A0FB9F
:100D7800082308FB0155B21A2B4467EB0303C4E9A7
:100D88000023BDE8F08100BF704700BF00292DE9AE
:100D9800F043C0F2A6800026002BC0F29C80884653
:100DA80094469E46154604460F46002B3DD18A427E
:100DB80059D9B2FA82F33BB1C3F120029F4020FA1D
:100DC80002F29D4017439C40290C220CB7FBF1FE10
:100DD800A8B201FB1E7742EA074700FB0EF3BB42AD
:100DE8000AD97F190EF1FF3280F00581BB4240F22B
:100DF8000281AEF1020E2F44FF1AA4B2B7FBF1F341
:100E080001FB137744EA074700FB03F0B84208D90F
:100E18007F1903F1FF3280F0F080B84240F2ED8094
:100E2800023B43EA0E43002203E08B420FD9002223
:100E38001346341C18BF012460424FF0000565EBCF
:100E480045015840514000196941BDE8F083B3FAA3
:100E580083F2002A40F086808B4202D3844500F258
:100E6800DB800123E5E712B90123B3FBF2F5B5FAFC
:100E780085F000283BD1781B4FEA154E1FFA85FCF8
:100E88000122B0FBFEF8210C0EFB180741EA0747C8
:100E98000CFB08F3BB4207D97F1908F1FF3102D2D6
:100EA800BB4200F2BD808846FF1AA4B2B7FBFEF32E
:100EB8000EFB137744EA07470CFB03FCBC4507D934
:100EC8007F1903F1FF3102D2BC4500F2A7800B461F
:100ED80043EA0843ADE752426FEA060663EB430371
:100EE8005DE7404261EB41014FF0FF3654E7C0F146
:100EF800200224FA02F107FA00F385404FEA154E62
:100F0800D7401943B7FBFEF20B0C0EFB12771FFA02
:100F180085FC43EA07430CFB02F79F4204FA00F4FE
:100F280007D95B1902F1FF3074D29F4272D9023A95
:100F38002B44DF1B89B2B7FBFEF80EFB187341EA9E
:100F480003430CFB08F79F4208D95B1908F1FF31EE
:100F58005CD29F425AD9A8F102082B44D81B48EA10
:100F680002428EE7C2F120032CFA03F10EFA02FEC8
:100F780020FA03F741EA0E0E08FA02F028FA03F104
:100F88004FEA1E453843B1FBF5F8030C05FB181171
:100F98001FFA8EF743EA014107FB08F38B420CFA6C
:100FA80002FC09D911EB0E0108F1FF3930D28B424E
:100FB8002ED9A8F102087144C91A80B2B1FBF5F321
:100FC80005FB131140EA014107FB03F78F4208D9DB
:100FD80011EB0E0103F1FF3016D28F4214D9023BF8
:100FE800714443EA0843C91BA3FB0C89494509D34B
:100FF80005D000221DE79646FEE6134611E7944009
:101008004445F6D2013BF4E70346EAE78846A5E7FC
:10101800C846D1E702468CE713460AE7023B57E782
:10102800A8F102082F443FE72DE9F041002B44D1F5
:101038008A42154604464FD9B2FA82F70E464FB196
:10104800C7F12003B94020FA03F602FA07F50E4368
:1010580000FA07F44FEA154E230CB6FBFEF0AFB2C8
:101068000EFB106143EA014307FB00F1994209D9DD
:101078005B1900F1FF3280F0EC80994240F2E98080
:1010880002382B445A1AA4B2B2FBFEF30EFB132209
:1010980044EA024207FB03F7974208D9521903F1C1
:1010A800FF3180F0D880974240F2D580023B43EA76
:1010B800004000263146BDE8F0818B4247D8B3FA9C
:1010C80083F6002E48D18B4202D3824200F2CD80B3
:1010D80001203146BDE8F08112B90125B5FBF2F5D2
:1010E800B5FA85F8B8F1000F77D14A1B4FEA154ECB
:1010F800AFB20126B2FBFEF0230C0EFB102143EA2F
:10110800014107FB00F38B4207D9491900F1FF326F
:1011180002D28B4200F2BA801046C91AA4B2B1FBBF
:10112800FEF30EFB131144EA014407FB03F7A74241
:1011380008D9641903F1FF3280F08F80A74240F28A
:101148008C80023B43EA00403146BDE8F08100262E
:1011580030463146BDE8F081C6F1200422FA04F594
:10116800B3402B4320FA04FC01FA06F721FA04F5F0
:101178004FEA134E4CEA0707B5FBFEF8390C0EFB95
:1011880018551FFA83FC41EA05450CFB08F1A942F2
:1011980002FA06F204D9ED1808F1FF3467D3A04625
:1011A8006D1ABFB2B5FBFEF40EFB145547EA0541B4
:1011B8000CFB04FC8C4504D9C91804F1FF355CD339
:1011C8002C4644EA0844CCEB0101A4FB02239942D3
:1011D80048D344D0204600266CE7C8F1200401FA21
:1011E80008F305FA08F520FA04F7E1404FEA154E2E
:1011F8001F43B1FBFEF63A0C0EFB16111FFA85FCD5
:1012080042EA01430CFB06F29A4200FA08F407D9B5
:101218005B1906F1FF3137D29A4235D9023E2B4489
:101228009B1ABFB2B3FBFEF00EFB103347EA034331
:101238000CFB00F1994207D95B1900F1FF3221D26A
:1012480099421FD902382B445A1A40EA0646674683
:1012580050E7104616E70B4629E7134672E7B040F9
:101268009042B7D2601E002624E7304622E7A94202
:1012780095D9A8F102081D4492E78C45A0D9023CF3
:1012880019449EE71046DFE70E46C9E702382944AD
:1012980043E700BF07B5F8B9684600F071FB08B12D
:1012A8000F4804E001A800F06BFB18B10D4803F0EB
:1012B800A5FB11E00099CB1E072B03D90A4803F0C0
:1012C8004DFB09E0094A01990093D05C11B103F084
:1012D8003FFA01E003F04AFA03B05DF804FB00BFEF
:1012E800B89B0008CA9B0008F39B00086A9D000889
:1012F80007B558B9684603F05FFA0648BDF900100B
:10130800BDF90220BDF9043003F028FB03B05DF8F5
:1013180004FB00BF209C00081FB5F8B901A803F022
:1013280053FA9FED106ADDED016A9DED027ADDED5D
:10133800037A0D4866EE866A27EE067A67EE867AA5
:10134800FDEEE66ABDEEC77AFDEEE77A16EE901A74
:1013580017EE102A17EE903A03F000FB05B05DF87F
:1013680004FB00BF00008043539C000808B558B92F
:1013780003F018FA054B0649002818BF1946054816
:10138800BDE8084003F0EABA08BD00BF829C000827
:101398008A9C0008939C000800B59FB00123059320
:1013A8000693002307934FF4803302240D9305A876
:1013B8004FF4E0130C940E9300F07AFF00B1FEE7AF
:1013C8000F238DE8180002904FF4806304902146A3
:1013D8006846039301F056FA00B1FEE710231EA8F1
:1013E8001693202340F83C3D02F080FB10B10648DC
:1013F80003F004FB01F012FCFEF762FF00F008F8AE
:1014080000F028FAFCE700BFAC9C000801F018BC0B
:1014180010B5174C1748E369174943F48003E36193
:10142800164B86B080E80A00012200238360C26060
:101438000361C36103624361836102F026FD10B159
:101448000F4803F0DBFA63690E4843F480236361B5
:10145800C0230193122302930123039303230493CC
:1014680004230DEB0301059301F050FC06B010BDF9
:1014780000100240940A002000540040D38D8010D0
:10148800729D0008000400481FB5164B164C1868DA
:10149800039064230093BD2122460A23134802F0D7
:1014A800ABFDE179124A01F078015170217A91700F
:1014B800617A002301F00F011370D170013A03A97A
:1014C800585C12F8011F01330143042B1170F6D147
:1014D80064220092BC21064A044802F01FFD04B0B1
:1014E80010BD00BF20970008D60A0020940A0020EB
:1014F800D20A00200000000010B551EC100B2DEDB1
:10150800048BB0EE408AF0EE608AB0EE419AF0EEBD
:10151800619A00220023FFF723FB90B1B0EE481A2E
:10152800F0EE681AB0EE490AF0EE690A07F016FE06
:101538002BA3D3E9002351EC100BFFF781F82A4BBA
:1015480013E051EC180B00220023FFF7E1FA78B101
:10155800002351EC190B0022FFF7E4FA224B10B1DB
:101568000020224901E022490020C3E9000130E0BF
:1015780051EC180B00220023FFF7D4FA48B351ECC2
:10158800190B00220023FFF7E1FAB0EE490AF0EE4A
:10159800690AB0EE481AF0EE681A134C48B107F021
:1015A800DDFD0DA3D3E9002351EC100BFEF796FEE9
:1015B80008E007F0D3FD08A3D3E9002351EC100B92
:1015C800FEF78AFE06A3D3E90023FFF739F8C4E93A
:1015D8000001BDEC048B10BDF1D4C853FB210940B8
:1015E800775AF01ADCA54C40F00A0020008056C05B
:1015F8000080564037B52B4C2B4864232246009375
:10160800BD21062302F0F8FC2179227827480B092E
:1016180043EA0213264A03801D05138042BF43F4A0
:101628007843138003806378224A01F00F0141EA6E
:1016380003131D0548BF1D491380438042BF43F46F
:10164800784313804B806379A27803F00F0343EA51
:1016580002131905184A48BF14491380838042BFF2
:1016680043F478438B801380144BE2781978144C38
:1016780002F00C02914222701D460ED1114803F06F
:10168800BDF90021642300930A460123064802F0AD
:1016980045FCFFF7F9FE0023237023782B7003B075
:1016A80030BD00BFD60A0020940A0020E20A0020BC
:1016B800D00A0020E80A0020E00A002005090020DE
:1016C800040900208D9D000870B5FFF793FF0D4BAE
:1016D800B3F90000FEF74EFF0B4B0446B3F90000C8
:1016E8000D46FEF747FF45EC104B41EC110BFFF799
:1016F80003FF064B0648D3E90023BDE8704003F01A
:101708002DB900BFD00A0020E80A0020F00A002006
:10171800AB9D000807B540B9684600F031F901A84B
:1017280000F02EF9009B019A1A6003B05DF804FBE3
:1017380007B538B901A800F023F9019903480A68E8
:1017480003F00CF903B05DF804FB00BFD69D000858
:101758002DE9F041154608B9334820E009B9334866
:101768001DE022B1324B4C1E1E6803460AE0314888
:1017780015E013F8012B002A4DD03244013C527871
:1017880012074BD5671C18462146F2D11B78002B4F
:1017980047D0294903F0E8F9064610B927482849EF
:1017A80037E0284903F032F90446A0B9224903F08A
:1017B800DBF9064690B90C3555F80C1C89B355F879
:1017C800042C1AB1204803F0C9F8F4E755F8083C8E
:1017D80001209847EFE74FF0000809E04FF00208B2
:1017E80006E03046394603F011F9044620B10C35BD
:1017F8002F68002FF5D10AE0B8F1000F03D0134885
:10180800394603F0ABF86B684046984709E0104842
:10181800314603F0A3F84FF0FF3402E00029B8D1B5
:10182800F9E72046BDE8F081219E0008429E0008A5
:1018380044000020529E0008759E00087C9E000807
:10184800029F0008AC9E0008B19E0008BD9E0008DB
:10185800C29E000873B53F4D2B6823B13E4803F084
:101868007DF800232B600DF1070000F0B4F9002883
:101878006ED19DF80730082B01D07F2B0DD1374C46
:10188800226852B1364803F069F8364A1368013BBA
:1018980013602368013B23605AE0212B15D1324B9A
:1018A8001B68002B54D0314C3149204603F0D0F846
:1018B8002146304803F052F8204603F027F9274B19
:1018C8001860284B04441C6025E02B4A12681A440F
:1018D800527812F0970212D020490A684F2A9FBF07
:1018E800204C20680370451C97BF013207209DF8E3
:1018F8000700256098BF0A6003F044F828E00D2B24
:1019080026D1184B1A481B6818491A7003F0A0F81A
:10191800154B01221A600A20124C03F033F80F4BC2
:1019280020681E680246311A11444F294FF0000101
:1019380002D802F8011BF6E719600C4E0F4B226023
:1019480030461A685021FFF703FF012326602B60F9
:1019580002B070BD0C000020F79E00080C090020A2
:10196800FE9E00081000002008090020490B0020F6
:10197800F90A0020F3A10008440000201400002008
:1019880010B508490446002003F0EEF830B10021F4
:101998000A4603F0B7F92060002010BD4FF0FF3071
:1019A80010BD00BF759E000810B50649044600200A
:1019B80003F0DAF810B12060002010BD4FF0FF30BE
:1019C80010BD00BF759E00082DE9F04F804689B014
:1019D80092460D46002944D003AC00EB01090646A7
:1019E8002746C8EB0A014E453144C8EB060325D00B
:1019F80013F00F0B03D11C4802F0B0FF3C461B4B01
:101A080016F8011B1B681A480B445B7813F0970FF4
:101A180008BF2E2204F1010314BF21702270019324
:101A28001C4602F09BFFBBF10F0F019BD9D100228E
:101A38001A7039460F4802F091FFD2E7002315F0DB
:101A48000F0523700DD01C46C5F110039C4204D22B
:101A5800094802F083FF0134F6E70648394602F0E8
:101A68007DFF09B0BDE8F08F089F00084400002002
:101A78000E9F0008149F00081A9F0008012838B517
:101A88001DD002280E4C0F4D09D10F4802F0B6FFA9
:101A980021682A680D48BDE8384002F05FBF20463B
:101AA800FFF76EFF10B92846FFF76AFF206829681C
:101AB8000246FFF789FF23682A681344236038BD6C
:101AC80010090020180000201E9F0008B6A000087A
:101AD80008B50A4B1A680AB9094A1A6018686B46A9
:101AE8000144994206D902F0A7FE0C2303604FF087
:101AF800FF3008BD014B196008BD00BF1409002064
:101B08003C0F00204FF0FF3070474FF400535360F4
:101B18000020704701207047002070472DE9F043EE
:101B2800044685B0E8B972B60F482146D0F810616E
:101B3800D0F81451D0F81891D0F81C81D0F8207141
:101B4800142200F5887002F0BBFE62B60748CDF893
:101B58000090CDF804800297214632462B4602F0C9
:101B6800FDFE05B0BDE8F0831809002004A10008B7
:101B7800F0B572B60A440E460F4F4FF492754543BE
:101B88007C198034A3889BB2C1EB060E83B19642C0
:101B98000ED063889BB21D4401337D5D06F8015B5E
:101BA80003F07F036380A388013B9BB2A380E3E734
:101BB80062B67046F0BD00BF18090020114600202B
:101BC8001A46FFF7D5BF08B50122FFF7D1FFB0FAD3
:101BD80080F0400908BD014608B50020FFF7F3FF73
:101BE800003018BF012008BDF8B5374E4FF4927386
:101BF8007F2A03FB006306D9D3F810210132C3F80A
:101C080010210120F8BDB3F80A4112FA84F47F2CA0
:101C180082BFD3F814410134C3F814414FF49273CE
:101C280003FB0063B3F80A4112FA84F47F2CF5D859
:101C380072B6D3F818411444C3F818410A449142C3
:101C48001CD04FF4927303FB006303F584756C8812
:101C5800A4B27F2C12D8B3F8064111F801EBA4B254
:101C680003F580772344013404F07F04FC8083F873
:101C780086E06B8801339BB26B80E0E74FF4927388
:101C880003FB0063B3F8082195B2B3F80A2192B2B6
:101C980053197F2B88BFC5F1800290B90B4F97F875
:101CA800FC31032B0DD194B2711938468631224686
:101CB80002F0C3FC384602F0C8FC10B9024BA3F886
:101CC8000C4162B60020F8BD180900209C0B0020CA
:101CD800F8B51D461446D718BC4226460FD03378AF
:101CE8000A2B04F1010404D1002006490122FFF760
:101CF8007BFF314601220020FFF776FFECE72846FC
:101D0800F8BD00BF7A9E0008014801F0BFBB00BFC4
:101D1800C40D002070B51B4B8AB005466A4603F116
:101D2800200618685968144603C40833B34222468B
:101D3800F7D118689B8820602946A38011F8022BE8
:101D48006B7843EA02230022144613F47C450E48BC
:101D580014D09B01C3F315030AAD05EB134515F821
:101D6800295C8554A01D072881BFA01E0C788440DB
:101D7800234388BF013101320446E6E785540AB09F
:101D880070BD00BFAEA100083C0A002038B504466B
:101D980000B301B38D798A884368102D05D0202DB2
:101DA80005D0082D05D1D05C38BDD05A38BDD058E3
:101DB80038BD0868FFF7AEFF29460246074802F01B
:101DC800CDFD2068FFF7A6FF0146054802F0C6FDD5
:101DD800002038BD38BD084638BD00BFD4A1000872
:101DE800F6A1000838B50546F8B1F1B18C798888B4
:101DF8006B68102C05D0202C05D0082C06D1C254B5
:101E080002E0C25200E0C250002038BD0868FFF767
:101E180081FF21460246064802F0A0FD2868FFF728
:101E280079FF0146034802F099FD012038BD00BF43
:101E3800D4A10008F6A1000830B5044685B0C8B1A1
:101E4800437901259D4003790068D940013D0D4043
:101E5800FFF760FF6279084B01460848012A98BFDE
:101E680003468DE80C002379029305482A462B4641
:101E780002F074FD05B030BD09A200080FA20008E9
:101E880015A20008F7B50F4616461D46044610B3BE
:101E98000068FFF73FFFA3790093A3883B440146FE
:101EA80001930E483246334602F058FDA7685FB1E9
:101EB8008DB10025A3899D4207EBC50005D23146A7
:101EC800FFF7BAFF0135F5E72DB10A2003B0BDE8E9
:101ED800F04002F057BD03B0F0BD00BF3EA20008BD
:101EE8002DE9F04188460446E8B10068FFF712FF83
:101EF800626801460D4802F031FDA7680FB9BDE8D8
:101F0800F0810025A3899D4207EB05160BD23146C7
:101F18002046FFF73BFF6168024643463046FFF71D
:101F2800B1FF0135EEE7BDE8F08100BF79A20008F6
:101F380038B50546092002F025FD08242868A0B117
:101F4800FFF7E8FE0146094802F008FD2B69044442
:101F58004BB1074802F002FD0444462C03D905485A
:101F680002F0FCFC08241035E8E738BDF3A10008AE
:101F780012A20008A1A2000870B5064609200D4665
:101F880002F000FD013D103608246B1C18D056F8ED
:101F9800100CFFF7BFFE01460A4802F0DFFC2044A0
:101FA800C4B255B1084802F0D9FC2044C4B2462C4A
:101FB80003D9064802F0D2FC0824013D1036E4E7B4
:101FC80070BD00BFF3A1000812A20008A1A200087A
:101FD800F0B5022885B031D103A8FFF7E5FC38B188
:101FE800884802F00BFD8848FFF7A2FF874822E0E7
:101FF800854C206848B9206890B90399844802F054
:10200800ADFC8148FFF794FFF9E0039DFFF782FEDE
:102018000146284602F0FAFC0028ECD01034E8E724
:10202800FFF778FE01467B4802F098FCA068A1897A
:10203800FFF7A2FF784802F0E1FCE0E06846FFF70E
:10204800B3FC18B1754802F0D9FC14E06E4C206856
:1020580030B923689BB90099714802F07FFC0AE007
:10206800009DFFF757FE0146284602F0CFFC0028E6
:10207800EFD01034EBE76448FFF75AFFDAE701A81E
:10208800FFF792FC10B12046002117E0A568A78948
:10209800019E57B12868FFF73DFE0146304602F021
:1020A800B5FC013F68B11035F2E730465D4902F0F2
:1020B800ADFC002840F09A8020460121FFF710FF70
:1020C8009DE002A8FFF770FC002840F0838002988A
:1020D800554902F09BFC48B903A8FFF751FC08B129
:1020E8005248A8E728466168039A7BE0AE683068E2
:1020F80010B937685FB946E0029FFFF70BFE01464B
:10210800384602F083FC0028F3D00836EFE703A82E
:10211800FFF736FC28B12868FFF7FCFD0146444864
:1021280040E029462046FFF731FE727996F804E030
:1021380003990123934020FA0EF7013B03FA0EF2AC
:102148001F400B4003FA0EF320EA02021A43294605
:102158002046FFF747FE2068FFF7DCFD01463548BB
:1021680002F0FCFB2868FFF7D5FD0146314802F074
:10217800F5FB3068FFF7CEFD3A460146039B2E4833
:1021880002F0ECFB3BE002F057FB394607603A46A9
:10219800029802F0B7FD039002F04EFB036823B1EA
:1021A8002648029902F0DAFB29E0039A29462046DC
:1021B800FFF718FE2068FFF7ADFD01461D4802F045
:1021C800CDFB2868FFF7A6FD039A01461C4802F0DC
:1021D800C5FB14E029462046FFF7D8FD6168039047
:1021E800024628460123FFF74DFE08E02068FFF766
:1021F80091FD31460246134802F0B0FB16E705B0E0
:10220800F0BD00BFA4A20008383E0108B7A400082A
:102218000CA5000847A50008D5A500086CA500086E
:102228009BA50008A2A6000814A6000818A6000886
:1022380037A6000862A6000866A6000877A6000868
:1022480095A60008D7A500081549D1F8883043F4A9
:102258007003C1F88830134B1A6842F001021A6003
:102268005868114A02405A601A6822F0847222F4AF
:1022780080321A601A6822F480221A605A6822F49E
:10228800FE025A60DA6A22F00F02DA62186B074A15
:1022980002401A6300229A604FF000638B60704717
:1022A80000ED00E0001002400CC07FF8CCFC00FFFD
:1022B800F8B50368DB07044604D423689F0700F1D8
:1022C800C68057E1C14D6B6803F00C03042B07D09F
:1022D8006B6803F00C03082B27D16B68DE0324D549
:1022E8004FF4003292FAA2F3B3FA83F343F02003D7
:1022F800C3F34213012B01D1296804E092FAA2F238
:10230800B2FA82F2696A4FF4003393FAA3F3B3FA8C
:1023180083F3012203F01F0302FA03F30B42CCD02C
:1023280063689342C9D00120F8BDA94E00233370D9
:1023380000F08EFC07464FF4003292FAA2F3B3FA8B
:1023480083F343F02003C3F34213012B01D129681F
:1023580004E092FAA2F2B2FA82F2696A4FF4003308
:1023680093FAA3F3B3FA83F3012203F01F0302FAEB
:1023780003F30B4208D000F06BFC41F28833C01B1A
:102388009842D8D90320F8BD23793370EB6A23F03B
:102398000F02A3681343EB626368012B2BD100F093
:1023A80057FC06464FF4003292FAA2F3B3FA83F3CD
:1023B80043F02003C3F34213012B01D1296804E041
:1023C80092FAA2F2B2FA82F2696A4FF4003393FAEF
:1023D800A3F3B3FA83F3012203F01F0302FA03F312
:1023E8000B427FF46AAF00F033FC41F28833801B64
:1023F8009842D7D9C6E700F02BFC06464FF40032C6
:1024080092FAA2F3B3FA83F343F02003C3F342131F
:10241800012B01D1296804E092FAA2F2B2FA82F201
:10242800696A4FF4003393FAA3F3B3FA83F30122F2
:1024380003F01F0302FA03F30B423FF43EAF00F030
:1024480007FC41F28833801B9842D7D99AE75F4D41
:102458006B6813F00C0F07D06B6803F00C03082BA4
:1024680025D16B68D80322D4022292FAA2F3B3FAD8
:1024780083F343F02003C3F34213012B01D12968EE
:1024880004E092FAA2F2B2FA82F2696A022393FA9B
:10249800A3F3B3FA83F3012203F01F0302FA03F351
:1024A8000B4230D0236993427FF43DAF2BE0226981
:1024B800484BBAB301221A6000F0CAFB0646022252
:1024C80092FAA2F3B3FA83F343F02003C3F342135F
:1024D800012B01D1296804E092FAA2F2B2FA82F241
:1024E800696A022393FAA3F3B3FA83F3012203F090
:1024F8001F0302FA03F30B4205D100F0A9FB801B6E
:102508006428DCD93EE72A68F82393FAA3F3B3FAE0
:1025180083F36169DBB2994022F0F80241EA0203D1
:102528002B6027E01A6000F093FB0646022292FA1D
:10253800A2F3B3FA83F343F02003C3F34213012B4E
:1025480001D1296804E092FAA2F2B2FA82F2696A29
:10255800022393FAA3F3B3FA83F3012203F01F03D0
:1025680002FA03F30B4205D000F072FB801B6428CB
:10257800DCD907E72368190704D423685A0740F110
:10258800A7804AE0A269114D134B3AB301221A60A1
:1025980000F05EFB0646022393FAA3F2B2FA82F237
:1025A80093FAA3F2B2FA82F2696A93FAA3F3B3FA3E
:1025B80083F3012203F01F0302FA03F30B42DCD179
:1025C80000F046FB801B6428E5D9DBE600100240DA
:1025D8000210024000004242800442421A6000F0A9
:1025E80037FB0646022393FAA3F2B2FA82F293FA71
:1025F800A3F2B2FA82F2696A93FAA3F3B3FA83F305
:10260800012203F01F0302FA03F30B42B5D000F0D6
:102618001FFB801B6428E5D9B4E6974D974AEB6900
:1026280043F08053EB61136843F48073136000F048
:102638000FFB0646914B1B68DB054DD52B6A23F033
:1026480005032B6200F004FB0646022393FAA3F26B
:10265800B2FA82F293FAA3F2B2FA82F242F040029C
:10266800C2F342129A420CBF296A696A93FAA3F329
:10267800B3FA83F3012203F01F0302FA03F30B42B8
:1026880030D12B6AE26823F005031343012A2B6239
:1026980038D100F0DDFA0646022393FAA3F2B2FA23
:1026A80082F293FAA3F2B2FA82F242F04002C2F343
:1026B80042129A420CBF296A696A93FAA3F3B3FAE1
:1026C80083F3012203F01F0302FA03F30B4211D034
:1026D800E269002A3DD18BE000F0BAFA801B642839
:1026E800A8D94FE600F0B4FA41F28833801B98422B
:1026F800ABD947E600F0ACFA41F28833801B984228
:10270800CAD93FE600F0A4FA0646022393FAA3F2D8
:10271800B2FA82F293FAA3F2B2FA82F242F04002DB
:10272800C2F342129A420CBF296A696A93FAA3F368
:10273800B3FA83F3012203F01F0302FA03F30B42F7
:10274800C6D000F085FA41F28833801B9842DCD964
:1027580018E6494D6B6803F00C03082B3FF4E3AD12
:10276800474E0023022A33605CD100F071FA074615
:102778004FF0007292FAA2F3B3FA83F343F0200306
:10278800C3F34213012B35D12A684FF0007393FA33
:10279800A3F3B3FA83F3012103F01F0301FA03F350
:1027A80013422DD1206A626A6B68024323F47413C2
:1027B80013436B60316000F04BFA04464FF000722F
:1027C80092FAA2F3B3FA83F343F02003C3F342135C
:1027D800012B1BD129684FF0007393FAA3F3B3FAC6
:1027E80083F3012203F01F0302FA03F30B4213D011
:1027F8000020F8BD92FAA2F2B2FA82F26A6AC4E73D
:1028080000F026FAC01B6428B2D9BBE592FAA2F2FE
:10281800B2FA82F2696ADEE700F01AFA001B64284D
:10282800CCD9AFE500F014FA04464FF0007292FAE2
:10283800A2F3B3FA83F343F02003C3F34213012B4B
:1028480001D1296804E092FAA2F2B2FA82F2696A26
:102858004FF0007393FAA3F3B3FA83F3012203F062
:102868001F0302FA03F30B42C2D000F0F1F9001B78
:102878006428DAD986E500BF0010024000700040E5
:1028880060004242B04AF8B5136803F00703994262
:1028980004460E4640F2A980136823F007030B4351
:1028A8001360136803F007038B4201D00120F8BDC1
:1028B80001688F0741BFA548436823F0F002A36869
:1028C80044BF13434360CE070BD421684D0740F142
:1028D8002B819E48436823F4E062E3681343436016
:1028E80022E16268994D012A15D14FF4003191FA1D
:1028F800A1F3B3FA83F343F02003C3F34213012B8C
:1029080001D1286804E091FAA1F1B1FA81F1686A6D
:102918004FF400332AE0022A15D14FF0007191FAE2
:10292800A1F3B3FA83F343F02003C3F34213012B5B
:1029380001D1286804E091FAA1F1B1FA81F1686A3D
:102948004FF0007312E0022191FAA1F3B3FA83F376
:1029580043F02003C3F34213012B01D1286804E09C
:1029680091FAA1F1B1FA81F1686A022393FAA3F30B
:10297800B3FA83F3012103F01F0301FA03F30342BF
:1029880094D06B6823F003031A436A6000F060F97F
:102998006368012B06460DD16B6803F00C03042B0A
:1029A80093D000F055F941F28833801B9842F3D94F
:1029B8000320F8BD022B13D16B6803F00C03082B1E
:1029C80083D000F045F941F28833801B9842F3D94F
:1029D800EEE700F03DF941F28833801B9842E7D8D2
:1029E8006B6813F00C0FF4D16FE70168880741BFDB
:1029F8005648436823F0F002A36844BF134343607A
:102A0800CA070CD4504A136823F0070333431360F2
:102A1800136803F00703B3427FF448AF55E76268D1
:102A28004A4D012A15D14FF4003191FAA1F3B3FAB6
:102A380083F343F02003C3F34213012B01D1286829
:102A480004E091FAA1F1B1FA81F1686A4FF4003318
:102A58002AE0022A15D14FF0007191FAA1F3B3FAD6
:102A680083F343F02003C3F34213012B01D12868F9
:102A780004E091FAA1F1B1FA81F1686A4FF00073AC
:102A880012E0022191FAA1F3B3FA83F343F0200391
:102A9800C3F34213012B01D1286804E091FAA1F194
:102AA800B1FA81F1686A022393FAA3F3B3FA83F3C4
:102AB800012103F01F0301FA03F303423FF4F6AECA
:102AC8006B6823F003031A436A6000F0C1F8636877
:102AD800012B07460CD16B6803F00C03042B91D033
:102AE80000F0B6F841F28833C01B9842F3D95FE78B
:102AF800022B14D16B6803F00C03082B82D000F072
:102B0800A7F841F28833C01B9842F3D950E700F088
:102B18009FF841F28833C01B98423FF649AF6B6873
:102B280013F00C0FF3D16DE70B0741BF074A21697A
:102B3800536823F4605344BF43EAC10353600F2032
:102B480000F059F80020F8BD0020024000100240B3
:102B5800154910B54C6804F00C03082B21D14FF42B
:102B6800701393FAA3F3B3FA83F304F47012DBB28D
:102B780022FA03F30D4AC96AD25C0F2393FAA3F32E
:102B8800B3FA83F301F00F01DBB221FA03F308492A
:102B9800C85CE30352BF0748074BB3FBF0F0504350
:102BA80010BD054810BD00BF00100240A48C0108EC
:102BB800948C010800093D0000127A0008B5FFF75F
:102BC800C7FF094B5A68F02393FAA3F3B3FA83F3C8
:102BD80002F0F002DBB222FA03F3044AD35CD840D5
:102BE800034B186008BD00BF00100240848C010828
:102BF8001C000020704710B50446FFF7DFFF4FF4B4
:102C08007A73B0FBF3F000F06BF84FF0FF30214619
:102C1800002200F035F8002010BD0000074A08B572
:102C2800136843F010031360032000F017F80F2017
:102C3800FFF7E1FFFFF7DEFF002008BD002002409C
:102C4800024A136801331360704700BF500A00201E
:102C5800014B1868704700BF500A0020074AD36824
:102C680023F4E0631B041B0C43F0BF6343F40033FD
:102C780000F0070043EA0023D360704700ED00E04E
:102C8800154BDB68C3F3022370B5C3F107051C1DA0
:102C9800042D28BF0425062C8CBF033B00230124E8
:102CA80004FA03F6AC40013C013E21409940324011
:102CB800002842EA01024FEA0212AFBF00F1604069
:102CC80000F00F00054BD2B2A5BF00F56140D2B2AB
:102CD8001A5480F8002370BD00ED00E014ED00E008
:102CE8000138B0F1807F3FBF064B074A5860F0219A
:102CF8003FBF82F8231000200722986034BF1A6073
:102D08000120704710E000E000ED00E02DE9F041FF
:102D18000F68002301229A4002EA0705954240F015
:102D2800AC804C6824F0100CBCF1020F14D14FEAAF
:102D3800D30E00EB8E0E03F00706DEF82020B60057
:102D48004FF00F0808FA06F822EA08080A69B240A4
:102D580048EA0202CEF820204FEA430E0322066812
:102D680002FA0EF2D24302EA060804F0030606FA53
:102D78000EF60CF1FF3C48EA0606BCF1010F0660AE
:102D880011D8866802EA060CCE6806FA0EF64CEAF6
:102D980006068660466826EA050CC4F300169E40BF
:102DA8004CEA06064660C66802EA060C8A6802FA19
:102DB8000EF64CEA0602C260E2005ED5324EB269F7
:102DC80042F00102B26123F0030606F1804606F5DF
:102DD800803603F0030CD6F808E04FEA8C0C0F227B
:102DE80002FA0CF2B0F1904F2EEA020E15D0274AE3
:102DF800904214D002F58062904212D002F58062AF
:102E0800904210D002F5806290420ED002F58062A6
:102E180090420CBF0522062208E0002206E00122AB
:102E280004E0022202E0032200E0042202FA0CF28B
:102E380042EA0E02B260164A16686FEA050E14F4EA
:102E4800803F14BF2E430EEA06061660566814F437
:102E5800003F14BF2E430EEA06065660966814F427
:102E6800801F14BF2E430EEA06069660D668A40299
:102E780054BF0EEA06053543D5600133102B7FF4A5
:102E880049AFBDE8F08100BF0010024000040048CF
:102E9800000401400369194214BF01200020704753
:102EA8000AB10183704741837047436959404161C2
:102EB800704790F84031012B0FD0012380F8403142
:102EC80021B903688022A3F84C2001E080F824107F
:102ED800002380F840311846704702207047F0B54B
:102EE800CCB214F0800F01F07F064FF01C0515BF1F
:102EF80005FB060105FB01012831B431E4090E7018
:102F08004C70CB7090F84031CA60012B00F0818181
:102F1800012380F84031CC780A780368032C2FD835
:102F2800DFE804F002220D1712B233F82240A4B2EF
:102F380024F4EC4424F0700444F400741EE012B24B
:102F480033F8224024F4EC4424F070042404240CC4
:102F580014E012B233F82240A4B224F4EC4424F072
:102F6800700444F4C06409E012B233F82240A4B2F9
:102F780024F4EC4424F0700444F4806423F82240E0
:102F88000A7816B242F4004533F8264024F0F002DD
:102F9800120545F08005120D2A4323F826208C7A65
:102FA8000A78002C75D14D788C8808263DB3B3F883
:102FB8005050ADB216FB025203EB420264086400A3
:102FC800C2F800440C7833F8242052060BD533F8A5
:102FD800242022F0F0021205120D42F4004242F0C1
:102FE800C00223F82420097833F8212022F4E04293
:102FF80022F040021204120C82F02002FEE0B3F824
:103008005070BFB216FB0272043203F58065640883
:10301800640045F81240B3F850200C7892B216FBC1
:103028000422CE683E2E02F106020BD9C6F34F14D5
:10303800F70604BF04F1FF34A4B26FEAC4646FEA70
:10304800544406E0C6F34F04F60744BF0134A4B263
:10305800A402A4B245F812400C7833F82420520494
:103068000BD533F8242022F0F0021205120D42F499
:10307800404242F0800223F82420097833F82120C6
:1030880022F4804222F070021204120C82F44052A0
:10309800B4E012B203F5806533F8224024F4F874E2
:1030A8002405240D44F4014444F0800423F822400C
:1030B800B3F850600C780822B6B212FB0466CC88CC
:1030C8006408640045F81640B3F850400E78A4B27E
:1030D80012FB06420C8904326408640045F8124069
:1030E8000C784A7824B2002A46D133F824205704B1
:1030F8000BD533F8242022F0F0021205120D42F409
:10310800404242F0800223F824200C7833F824202F
:1031180056060BD533F8242022F0F0021205120DC2
:1031280042F4004242F0C00223F824200C7833F81D
:10313800242022F0F0021205120D42F4004242F05F
:10314800C00223F824200C7833F8242022F480428B
:1031580022F070021204120C82F4405242F400422F
:1031680042F0800223F82420097833F8212022F045
:10317800C0021205120D41E033F8242055040BD586
:1031880033F8242022F0F0021205120D42F44042D6
:1031980042F0800223F824200C7833F824205206C9
:1031A8000BD533F8242022F0F0021205120D42F458
:1031B800004242F0C00223F824200C7833F824207F
:1031C80022F0F0021205120D42F4404242F0800251
:1031D80023F824200C7833F8242022F0C0021205AA
:1031E800120D42F4004242F0800223F824200978AC
:1031F80033F8212022F0F0029204920C42F40042AB
:1032080042F0800223F82120002380F8403118463C
:10321800F0BD0220F0BD70B501F07F011C2404FB55
:10322800010404F1C0056A600022AB60C4F8CC2038
:1032380084F8B52084F8B41090F84031012B62D09E
:10324800012380F84031AB68D4F8C040A34298BF4E
:10325800AA604FF01C0202FB010284BF1B1BAB607B
:1032680092F8BE5088BF2346B03204680DB1557934
:1032780015BBB4F850501279ADB205EBC2053E2B20
:1032880004F5806605F106050BD9C3F34F12DB067A
:1032980004BF02F1FF3292B26FEAC2626FEA524291
:1032A80006E0C3F34F02DB0744BF013292B2920239
:1032B80092B246F815200CE0012D01BFB4F8505029
:1032C8001279ADB205EBC20204BF04EB4202C2F8A8
:1032D8000C341C2303FB010191F8B42034F822308C
:1032E80023F4804323F070031B041B0C83F4405326
:1032F80043F4004343F0800324F82230002380F88D
:103308004031184670BD022070BDF8B501F07F0647
:103318001C2101FB0601044601F138008A63436061
:10332800002201230A6481F8293081F8286094F882
:1033380040519D4200F0A88084F840314B6B4568AD
:103348001C2707FB06479D4288BFED1A97F83210E5
:1033580086BF45601D464260ABB207F1280289B9B5
:10336800B96B9288206800F099FB216897F828309B
:10337800B1F8502092B202EBC30301EB4303C3F848
:10338800045467E0527820681ABBB0F8501097F8D8
:10339800282089B201EBC2013E2D00F5806701F1BA
:1033A80006010BD9C5F34F12ED0604BF02F1FF3237
:1033B80092B26FEAC2626FEA524206E0C5F34F0268
:1033C800ED0744BF013292B2920292B247F811203F
:1033D8000DE0012A01BFB0F8502097F8281092B2EA
:1033E80002EBC10204BF00EB4202C2F80C541C25D8
:1033F80005FB064202F1280192F8287030F8277080
:1034080005FB06457F0654BFCA88128EA96B00F0DB
:1034180045FB95F82930226863B995F8281032F8E9
:10342800213023F0F0031B051B0D43F4004343F048
:10343800C0030DE0012B0DD195F8281032F821308A
:1034480023F0F0031B051B0D43F4404343F08003B6
:1034580022F821301C2303FB0646226896F8281020
:1034680032F8213023F4E04323F040031B041B0C03
:1034780083F0300343F4004343F08003002022F834
:10348800213084F84001F8BD0220F8BD0368B3F884
:1034980044301BB2002BF7B5044611DB2368B3F8A0
:1034A8004420520540F1E7814FF6FF322046A3F849
:1034B800442001F0FDF820460021FFF7FAFCDAE18C
:1034C8000023ADF806302068B0F844309BB21904E8
:1034D800ADF80430E2D5BDF8045015F00F0540F002
:1034E800B780BDF80410038801F0100189B259BBF8
:1034F80023F4E14323F070031B041B0C0380B0F892
:10350800503094F828209BB203EBC20300EB430031
:10351800A26BD0F80434C3F3090323641344A363F0
:10352800204601F0B9F894F82430002BCBD0E26B98
:10353800002AC8D194F82430216843F08003A1F808
:103548004C3084F82420BEE79BB2ADF80630BDF8B5
:1035580006301F051FD5B0F8503094F8B4209BB240
:1035680003EBC20300EB4303B4F8B820D3F80C34E0
:10357800C3F30903C4F8CC3004F5A27100F0A5FA2E
:103588002268138823F070031B051B0D1380204647
:1035980001F072F897E7BDF806301BB2002B92DAFB
:1035A800038823F070031B051B0D0380B0F850300F
:1035B80094F8B4209BB203EBC20300EB4303D3F8A7
:1035C8000C34C3F30903C4F8CC3063B1B4F8B820A1
:1035D800D4F8C41000F079FAD4F8C420D4F8CC3068
:1035E8001344C4F8C4302046002101F04CF8226886
:1035F800D4F8C050B2F850103E2D89B202F5806060
:1036080001F106010BD9C5F34F13EE0604BF03F110
:10361800FF339BB26FEAC3636FEA534306E0C5F317
:103628004F03ED0744BF01339BB29B029BB240F8A6
:103638001130138823F4804323F070031B041B0C00
:1036480083F4405343F4004343F0800313803AE784
:103658002FB230F827309BB2ADF80630BDF80630EF
:103668001BB2002B80F2848030F8273023F07003DF
:103678001B051C2202FB05421B0D20F8273002F116
:10368800B80C9CF8063002F1B00EB3B9B0F850305F
:103698009EF804109BB203EBC10300EB4303D3F87D
:1036A8000C64C6F30906002E40D0D2F8C410BEF848
:1036B8000820334600F009FA38E09EF8046033B277
:1036C80030F82330B0F8501013F4804F89B24FF01F
:1036D800080313FB061300EB430309D0D3F8046473
:1036E800C6F3090686B1D2F8C410BEF80A2008E06D
:1036F800D3F80C64C6F3090636B1D2F8C410BCF886
:103708000420334600F0E1F91C2303FB054322683B
:1037180093F8B41032F8213023F0F0031B051B0D89
:1037280043F4004343F0C00322F821301C2101FB7D
:103738000541D1F8CC30D1F8C4203344C1F8CC309D
:10374800D1F8C8303244C1F8C4201BB1D1F8C00048
:10375800864208D21C2303FB0543204693F8B41085
:1037680000F091FF04E0204691F8B410FFF753FDF4
:10377800BDF8063018067FF5A6AE206830F8273069
:1037880023F4E14323F070031B041B0C1C2202FBEF
:10379800054220F8273092F8323002F12806A3B902
:1037A800B0F8503092F828109BB203EBC10300EB3D
:1037B8004303D3F80434C3F309031364002B3AD04A
:1037C800916BB28800F06AF935E092F828703BB244
:1037D80030F82330B0F8501013F0400F89B24FF092
:1037E800080313FB071300EB430308D0D3F8043492
:1037F800C3F30903136463B1916BF28807E0D3F84C
:103808000C34C3F3090313641BB1916B128E00F0DF
:1038180045F91C2303FB0543226893F8281032F866
:10382800213023F0F0031B051B0D43F4404343F004
:10383800800322F8213021681C2303FB0545B1F8D9
:10384800502095F8283092B202EBC30301EB4303F2
:103858002046D3F80424AB6B95F82810C2F309026C
:103868002A641A44EB6BAA6313B900F015FF2AE621
:10387800FFF74BFD27E62368B3F84420520444BF02
:103888004BF6FF72A3F84420B3F84420970444BFD2
:103898004DF6FF72A3F84420B3F84420D60413D59C
:1038A800B3F8402022F004021204120CA3F84020BE
:1038B8004FF43D42A3F84020204600F007FF23685C
:1038C8004EF6FF72A3F844202368B3F84420150588
:1038D80018D54FF2FF72A3F84420B3F8402092B2F3
:1038E80042F00802A3F84020B3F8402092B242F018
:1038F8000402A3F84020B3F84430D80402D4204688
:1039080000F0E3FE2368B3F84420910506D54FF68E
:10391800FF52A3F84420204600F0C6FE2368B3F8FF
:103928004420D20544BF4FF6FF62A3F8442003B0F9
:10393800F0BD90F84031012B10B549D0CCB201232D
:103948001C2280F8403114F0800F01F07F0315BF6E
:1039580002FB030202FB01022832B43201219170FA
:10396800D9B2E30911705370026879B913889BB210
:1039780023F4804323F0400383F4805383F010033F
:1039880043F4004343F0800313801CE009B253B1B1
:1039980032F8213023F4E04323F040031B041B0CCE
:1039A80083F0100309E032F8213023F4804323F038
:1039B80070031B041B0C83F4805343F4004343F04F
:1039C800800322F82130002380F84031184610BDCA
:1039D800022010BDCBB213F0800F10B54FF01C02BF
:1039E80001F07F0415BF02FB040102FB010128312D
:1039F800B431DB0900228A700C704B7090F84031AA
:103A0800012B49D0012380F840310C784B780268AB
:103A180024B2DBB132F824305B060BD532F82430FF
:103A280023F0F0031B051B0D43F4004343F0C003D0
:103A380022F82430097832F8213023F4E04323F0C7
:103A480040031B041B0C83F030031AE032F82430C7
:103A58005B040BD532F8243023F0F0031B051B0D53
:103A680043F4404343F0800322F82430097832F8C5
:103A7800213023F4804323F070031B041B0C83F4D0
:103A8800405343F4004343F0800322F821300023DD
:103A980080F84031184610BD022010BD013300F5F2
:103AA800806030B55B1000EB420200249C4201F1BB
:103AB800020109D011F8015C11F8020C40EA052056
:103AC80022F824000134F1E730BD013300F58060AD
:103AD80010B55B1000EB420200249C4205D052F85E
:103AE800240021F814000134F7E710BD036870B50D
:103AF8000446D80359D56F4D6F4AEB6943F080539C
:103B0800EB61136843F480731360FFF7A1F806466E
:103B1800694B1B68D90506D4FFF79AF8801B6428FF
:103B2800F6D9032070BD296A6368624A4B4013F4D2
:103B3800407F08D0136A61490120086023F440736C
:103B48000020086013626368B3F5807F06D02B6A93
:103B580023F44072636813432B6226E0FFF778F87A
:103B68000646022393FAA3F2B2FA82F293FAA3F278
:103B7800B2FA82F242F04002C2F342129A420CBFF9
:103B8800296A696A93FAA3F3B3FA83F3012203F06B
:103B98001F0302FA03F30B42D9D1FFF759F841F298
:103BA8008833801B9842DCD9BBE72068C20741BF35
:103BB80040490B6B23F00302A36844BF13430B6314
:103BC800830741BF3B490B6B23F44032E36844BF92
:103BD80013430B63460741BF36490B6B23F440225E
:103BE800236944BF13430B63850641BF31490B6BFF
:103BF80023F01002E36944BF13430B63810341BF01
:103C08002C494B6823F48002A36B44BF13434B60D9
:103C1800420641BF27490B6B23F02002236A44BFA9
:103C280013430B63030741BF22490B6B23F4401274
:103C3800636944BF13430B63C60641BF1D490B6B41
:103C480023F44002A36944BF13430B63850541BFB6
:103C580018494B6823F40002E36A44BF13434B60DE
:103C6800010641BF1349CB6A23F4F872636A44BF63
:103C78001343CB62C20541BF0E49CB6A23F4785285
:103C8800A36A44BF1343CB62C30441BF09490B6B0A
:103C980023F48072236B44BF13430B6310F400506A
:103CA80007D004490B6B23F40072636B13430B6357
:103CB800002070BD001002400070004040044242E5
:103CC80030B50468039D606820F07F7020F4593097
:103CD80020F47F7020F0030028430343C1F3090157
:103CE8000B4343EA0242626030BD000070B50446EF
:103CF8000D46FEF7ADFF23680646986910F01000E0
:103D080039D094F83520122A07D094F83520522A51
:103D180003D094F83520622A12D15A6890010FD442
:103D28005A6842F480425A600AE09A69920611D4AD
:103D3800691CFAD035B1FEF78BFF801BA84201D869
:103D48002368F2E7012384F83530002384F83430FF
:103D5800032070BD1022DA612022DA615968064A10
:103D68000A405A60042384F836300120002384F87E
:103D7800350084F8343070BD00E800FE2DE9F041CC
:103D880004460E4690461D46FEF762FF0746B8F108
:103D9800000F25D1226893693340B3420ED0691CC5
:103DA800F9D07DB1FEF754FFC01BA842F2D909E053
:103DB8006B1C06D193693340B342F9D00020BDE8AB
:103DC800F08145B9012384F83530002384F8343074
:103DD8000320BDE8F081FEF73BFFC01BA842F1D8E5
:103DE8002268E7E770B504460D46FEF731FF064640
:103DF80023689B699B071BD420462946FFF776FF5B
:103E0800C0B96A1CF4D06DB994F8363043F0200379
:103E180084F83630012384F83530002384F83430B0
:103E2800032070BDFEF714FF801BA842E0D9EBE722
:103E3800002070BD012070BD70B504460D46FEF728
:103E480007FF064623689B699B0619D42046294626
:103E5800FFF74CFFB0B96DB994F8363043F0200342
:103E680084F83630012384F83530002384F8343060
:103E7800032070BDFEF7ECFE801BA842E2D9EBE7F9
:103E8800002070BD012070BD704710B504460028A1
:103E980041D090F835300BB9FFF7F6FF022384F8CC
:103EA80035302368E1681A6822F001021A606268F6
:103EB80022F070621A619A6822F400429A60A2683D
:103EC80042B1012903D142F400429A6007E042F46A
:103ED80004429A60022904BF4FF400625A605A688B
:103EE800616942F0007242F400425A6022690A4352
:103EF800A16942EA0122DA60216AE2690A431A608A
:103F08001A6842F001021A600020012384F8360082
:103F180084F8353010BD012010BD00002DE9F341B3
:103F2800174690F83520D2B2012A044688461D4625
:103F380059D10FB9012059E0002BFBD003689B69C8
:103F480013F400434FD190F83460012E4BD080F821
:103F58003420122280F8352080F836304FF4005390
:103F6800FF2D00931FD8EAB24FF00073FFF7A8FEA9
:103F78002E4620460899FFF735FF10BB236817F82F
:103F8800012B9A62013D013EADB213D1A5B1204685
:103F980080213246089BFFF7F1FE30BB0096204691
:103FA8004146FF2DDEE7FF224FF08073FFF788FEC2
:103FB800FF26DEE7002DDCD120460899FFF73CFFFD
:103FC80020B194F83630042B0FD1B3E723682022B0
:103FD800DA615968074A0A405A60012384F8353083
:103FE80084F8340002E0022000E0032002B0BDE8BB
:103FF800F08100BF00E800FE2DE9F341174690F874
:104008003520D2B2012A044688461D465CD10FB934
:1040180001205AE0002BFBD003689B6913F400438E
:1040280052D190F83460012E4ED080F834202222EC
:1040380080F8352080F836304FF41053FF2D009368
:1040480021D8EAB24FF00073FFF73AFE2E46204619
:1040580004210022089BFFF791FE30BB2368013D35
:104068005B6A07F8013B013EADB213D1A5B120460A
:1040780080213246089BFFF781FEB0B900962046A2
:104088004146FF2DDCE7FF224FF08073FFF718FE53
:10409800FF26DCE7002DDAD120461921FFF7CCFEF8
:1040A80028B194F83630042BB2D003200DE02368F1
:1040B8002022DA615968064A0A405A60012384F8C6
:1040C800353084F8340000E0022002B0BDE8F08109
:1040D80000E800FE08B5D0F814320BB9022008BD7C
:1040E8001B6898470028F9D108BD08B5D0F81432E4
:1040F8005B689847002008BD38B5044600F502758E
:10410800284600F0C8F8012394F80812C4F8F431DE
:10411800B4F80E32C4F8F83101F01F03012B0CD0AB
:1041280006D3022B0ED12046294600F0F7F90EE0FF
:104138002046294600F0CEF809E02046294600F03E
:10414800D5F904E0204601F0800100F0CAFA002009
:1041580038BD10B5044609BBD0F8F431032B26D17D
:10416800D0F80C11D0F8103199420AD9C91A8B42EB
:1041780028BF0B46C0F80C1111469AB200F03EFA5F
:1041880015E0D0F814321B6923B190F8FC21032AFA
:1041980000D19847204600F03AFA08E0D0F81432E7
:1041A8009B6923B190F8FC21032A00D1984700208D
:1041B80010BD38B50446A9BBD0F8F431022B29D17B
:1041C800C569036A9D4206D9EB1A1146C3619AB2C2
:1041D80000F00BFA1EE08269B2FBF3F503FB15252C
:1041E8005DB99A4209D3D0F8F8319A4205D22A46E5
:1041F80000F0FBF9C4F8F8510CE0D4F81432DB688D
:104208002BB194F8FC21032A01D120469847204677
:1042180000F008FA94F80032012B0CD1002384F83E
:10422800003208E0D0F814325B6923B190F8FC2121
:10423800032A00D19847002038BD38B5002104462C
:104248000A464025402300F042FA2B46C4F8105194
:1042580020468021002200F03AFA012384F8FC313C
:10426800D4F8183225622BB1D4F8143221795B685E
:1042780020469847002038BD01740020704708B5D3
:1042880090F8FC21032A04D1D0F81432DB6903B179
:104298009847002008BD0B7803704B784370CA78A4
:1042A8008B7803EB022343804A790B7903EB0223D3
:1042B8008380CA798B7903EB0223C380704710B5DA
:1042C8008021044600F00DFA20460021BDE8104088
:1042D80000F007BA73B54B7804460D46092B00F277
:1042E800FC80DFE813F0CE00E500FA00E100FA00F8
:1042F80077000A00FA00BD0093004B881A0A013AB9
:10430800062A00F2EA80DFE812F007000B00180026
:10431800E800E8003D004900D0F810321B682CE0A6
:10432800027CD0F814320AB99B6A00E0DB6A0DF10E
:1043380006009847022301463CE0DBB2052B00F259
:10434800CC80DFE803F003070B0F1317D0F8103207
:104358005B6812E0D0F810329B680EE0D0F810329B
:10436800DB680AE0D0F810321B6906E0D0F810329A
:104378005B6902E0D0F810329B69207C0DF10601E0
:10438800984709E0037C002B40F0A780D0F814324E
:104398000DF106005B6B984701460CE0037C002B8F
:1043A80040F09B80D0F814320DF106001B6B984743
:1043B800072301464B70BDF80630002B00F09180B2
:1043C800EA88002A00F08D809A4228BF1A46ADF884
:1043D800062054E08B88002B7FD1CB88002B7CD122
:1043E80090F8FC318E78032B06F07F0675D080F8A4
:1043F800FE61314600F096F9204600F008F90EB14A
:10440800022300E0012384F8FC316AE08978364E03
:104418000129317061D890F8FC31022B02D0032BAE
:1044280008D05AE0002954D001210323416080F8C4
:10443800FC310FE031B9022380F8FC314160FFF70D
:1044480054FE46E04168012943D0C9B2FFF74DFE4A
:10445800317861602046FFF73DFE022839D13CE003
:10446800CA88012A39D190F8FC31022B03D0032BDA
:1044780033D1011D15E00146002341F8083F2046CD
:104488000FE090F8FC31023B012B26D80123C360D2
:10449800D0F804320BB10323C360204604F10C01A9
:1044A800022200F094F81CE04B88012B19D108E097
:1044B80090F8FC31023B012B0FD84B88012B10D10F
:1044C8000023C4F80432D4F8143220469B682946E5
:1044D8009847204600F09BF803E020462946FFF75E
:1044E800EEFE002002B070BD540A002038B590F8E6
:1044F800FC31032B04460D460CD10B79012B09D84E
:10450800D0F814329B689847EB882BB9204600F006
:104518007EF801E0FFF7D3FE002038BD70B54E7875
:104528008A88012E04460D46D3B210D026D3032E16
:104538004BD190F8FC21022A27D0032A43D14A887C
:1045480092B95E0610D0194600F0CBF80CE090F84E
:10455800FC21022A19D0032A35D14A88AABB590658
:1045680008D0194600F0C4F8D4F8143220469B68E5
:1045780029469847204600F04AF826E090F8FC5172
:10458800022D02D0032D06D01DE05A061DD0194673
:1045980000F0A7F819E003F07F0512F0800F00EB98
:1045A8000515194614BF143505F5827500F0A7F8EE
:1045B80010B101232B6000E0286020462946022222
:1045C80000F005F801E0FFF77AFE002070BD38B56D
:1045D80013460D460222C0F8F4218361C36100210D
:1045E8002A4600F0A6F8002038BD10B50C46134640
:1045F8000021224600F09DF8002010BD10B50C46A1
:1046080013460021224600F09BF8002010BD08B593
:1046180000210423C0F8F4310A460B4600F089F85B
:10462800002008BD08B500210523C0F8F4310A466A
:104638000B4600F085F8002008BDD0F8183200209D
:10464800C3F80812C3F81022704738B5D0F81852CA
:1046580075B1D5F814426CB9B5F81032D5F80822FE
:10466800812100F066F80123C5F81432204638BDD0
:10467800022038BD012038BD014601F5A271D0F8ED
:104688007401FFF739BD1C2303FB0103D0F8740143
:10469800D3F8C420FFF75DBD1C2303FB0103D0F84A
:1046A80074019A6BFFF785BDD0F87401FFF7E7BD79
:1046B80010B504460121D0F87401FFF7DDFDD4F8E8
:1046C8007401BDE81040FFF7B8BD7047704710B5DA
:1046D8001446D0F820021A462346FEF700FC0020B4
:1046E80010BD08B5D0F82002FFF723F9002008BD57
:1046F80008B5D0F82002FFF76DF9002008BD11F0C9
:10470800800FD0F8202218BF01F07F034FF01C0063
:1047180015BF00FB032100FB012191F82A0091F845
:10472800B600704708B5D0F82002FEF7C2FB00209B
:1047380008BD08B5D0F82002FEF7E7FD002008BD47
:1047480008B5D0F82002FEF766FD002008BD00007D
:10475800044A034652F82000034A32F81310012293
:10476800FEF79EBB24000020B48C0108044A0346CF
:1047780052F82000034A32F813100022FEF790BBCB
:1047880024000020B48C0108044A034652F8200093
:10479800034A32F81310FEF788BB00BF240000203C
:1047A800B48C010808B5034B012153F82000FEF72B
:1047B80071FB08BD20000020024B1B689B6A03B1F7
:1047C80018477047580A0020024B1B689B6A03B1C0
:1047D800184770475C0A0020DFF834D0002103E056
:1047E8000C4B5B58435004310B480C4B42189A420F
:1047F800F6D30B4A02E0002342F8043B094B9A42E5
:10480800F9D3FDF721FD00F033F8FCF7C5FDFEE70D
:1048180000800020AC8F010800000020E408002080
:10482800E80800203C0F0020FEE7000001460020B9
:104838000246034601F026BD014B1868704700BFC9
:104848007004002038B5084B084DED1AAC1018BF9D
:10485800ED1805D0013C55F8043D9847002CF9D1D6
:10486800BDE8384004F052BFA88F0108AC8F01089A
:1048780070B50F4E0F4D761BB61018BF002405D02B
:10488800013455F8043B9847A642F9D10A4E0B4D1E
:10489800761B04F035FFB61018BF002406D001348B
:1048A80055F8043B9847A642F9D170BD70BD00BFCA
:1048B800A08F0108A08F0108A88F0108A08F010808
:1048C80070B4840746D0541E002A41D0CDB20346A6
:1048D80002E0621EE4B3144603F8015B9A07F8D1BC
:1048E800032C2ED9CDB245EA05250F2C45EA0545FE
:1048F80019D903F110022646103E0F2E42F8105C1B
:1049080042F80C5C42F8085C42F8045C02F11002C0
:10491800F2D8A4F1100222F00F0204F00F041032B2
:10492800032C13440DD91E462246043A032A46F89E
:10493800045BFAD8221F22F003020432134404F065
:1049480003042CB1C9B21C4403F8011BA342FBD1D8
:1049580070BC704714460346C2E700BF0FB400B5E9
:10496800074983B004AB086853F8042B81680193A6
:1049780000F0D6F903B05DF804EB04B0704700BF4F
:1049880070040020034B1B6801469A68184603F020
:10499800A3BF00BF70040020F0B5054689B00846E3
:1049A8000C4600F0B3F8AB6B134F04940126441C7B
:1049B80004A9022203940590AC6806970796019112
:1049C8000292ABB1A3899A0406D4626E43F40053F1
:1049D80022F40052A38162662846214601AA02F009
:1049E80005FF002814BF4FF0FF300A2009B0F0BDC2
:1049F800284602F0CBFDE5E7D08D0108024B0146C1
:104A08001868FFF7C9BF00BF700400200F4B30B40F
:104A18001D6802E0D21A16D1ABB110F8014B2B1960
:104A280022465B7803F00303012B11F8013B08BF12
:104A380004F12002EC18647804F00304012CE9D195
:104A48002033D21AE9D0104630BC70474400002009
:104A580080EA0102844612F0030F4FD111F0030FD0
:104A680032D14DF8044D11F0040F51F8043B0BD02E
:104A7800A3F101329A4312F0803F04BF4CF8043B83
:104A880051F8043B16D100BF51F8044BA3F1013291
:104A98009A4312F0803FA4F101320BD14CF8043B49
:104AA800A24312F0803F04BF51F8043B4CF8044B7A
:104AB800EAD023460CF8013B13F0FF0F4FEA3323EB
:104AC800F8D15DF8044B704711F0010F06D011F8CA
:104AD800012B0CF8012B002A08BF704711F0020FB8
:104AE800BFD031F8022B12F0FF0F16BF2CF8022BA3
:104AF8008CF8002012F47F4FB3D1704711F8012BC6
:104B08000CF8012B002AF9D1704700BF20F00301EF
:104B180010F00300C0F1000051F8043B00F1040C50
:104B28004FEACC0C6FF000021CBF22FA0CF21343C0
:104B38004FF0010C4CEA0C2C4CEA0C4CA3EB0C0289
:104B480022EA030212EACC1204BF51F8043B0430F3
:104B5800F4D0C2F1000102EA0102B2FA82F2C2F113
:104B68001F0200EBD2007047024B1A6801235C3227
:104B780000F002B870040020F0B420B307460D46D8
:104B880017F8016B01E0A64216D015F8014B002C6E
:104B9800F9D1EEB13E460C4616F8015B00E073B160
:104BA80014F8013BAB42FAD15DB100233B701660AB
:104BB80006463046F0BC704763B13846DEE73746F4
:104BC800E8E72E46F3E710680028D7D10646F0E755
:104BD8001660EEE7176006460370EAE72DE9F04F26
:104BE800464C0F46D4F800E000E027463C4614F84F
:104BF800015B0EEB0506767806F0080606F0FF085E
:104C0800002EF2D12D2D51D02B2D04BF7D78BC1C48
:104C18005BB1102B5BD04FF0FF39B9FBF3F903FB05
:104C280009FB6FEA0B0B9A4607E0302D43D00A23A5
:104C3800DFF8CC909A464FF0050B0027BC460CE0F5
:104C4800303DAB4219DD7E1C05D0CC4524D821D09F
:104C58000AFB0C5C012714F8015B0EEB050676785D
:104C680016F0040FECD116F0030606D0012E0CBF87
:104C780037265726AD1BAB42E5DC002F11DBC8F108
:104C880000008CEA000040444AB107B1611E11607F
:104C9800BDE8F08F5D45DBDD4FF0FF37DBE7BDE8B2
:104CA800F08F222303604FF0FF30EDE7BC1C7D78C6
:104CB8004FF00108ACE7237803F0DF03582B13D03B
:104CC80008239A464FF0070B6FF06049B5E7302D7F
:104CD80005D04FF00F0B6FF070499A46ADE7267874
:104CE80006F0DF06582EF4D14FF0100A65785346C7
:104CF8004FF00F0B02346FF070499EE7440000201C
:104D08009999991930B4044C0D46134601462A4620
:104D1800206830BCFFF762BF70040020000000006C
:104D28002DE9F04FBDB01C4689460492074602F0B3
:104D38001DFF036811931846FFF7E8FE08941290C8
:104D48001FB1BB6B002B00F0F380B9F80C2093B2B5
:104D58009E040AD4D9F8641042F4005321F4005197
:104D6800A9F80C30C9F864109BB21D0740F1AA805D
:104D7800D9F81020002A00F0A58003F01A030A2BA6
:104D880000F0AC809FED6E7B00238DED0E7B0D93C4
:104D9800219320931093139305932CAB1F931C46D8
:104DA800B846049D2B78002B00F0C680252B02D135
:104DB800C2E0252B03D015F8013F002BF9D1049B45
:104DC800EE1A7EB1209B219A049921600133324466
:104DD800072B66602192209300F393800834059B8B
:104DE800334405932B78002B00F093800023691C33
:104DF8004FF0FF3A6D788DF85F301A4606930293AC
:104E080056464B1CA5F12001582900F2CD83DFE856
:104E180011F05C02CB03CB030203CB03CB03CB0320
:104E2800CB03CB03CB030903D202CB03F801530313
:104E3800CB03D602DD02DD02DD02DD02DD02DD028A
:104E4800DD02DD02DD02CB03CB03CB03CB03CB03B7
:104E5800CB03CB03CB03CB03CB0371029302CB036E
:104E68009302CB03CB03CB03CB03CB02CB03CB0304
:104E78006E03CB03CB03CB03CB03CB03B503CB032D
:104E8800CB038B03CB03CB03CB03CB03CB03CB03EA
:104E9800CB03CB03CB03CB03A003170393029302EB
:104EA800930230031703CB03CB033703CB03410330
:104EB800FF01EC026302CB031102CB039B00CB037F
:104EC800CB0336023846494601F07AF9A0B9B9F859
:104ED8000C3003F01A030A2B7FF454AFB9F90E30E3
:104EE800002BFFF64FAF38464946049A234601F097
:104EF8002BF93DB0BDE8F08F4FF0FF303DB0BDE875
:104F0800F08F404649461FAA03F0B4FF40B92CACC5
:104F180065E7219B23B1404649461FAA03F0AAFF33
:104F2800B9F80C305A06E7D405983DB0BDE8F08FC3
:104F3800384602F02BFB08E7049D53E7AFF30080E7
:104F480000000000000000000493029BB2469E0689
:104F580040F11E83089F073727F0070303F1080273
:104F6800D3E90067089201234FF0000C8DF85FC069
:104F7800CDF82CA0BAF1000F03DB029A22F08002D0
:104F8800029256EA070240F01F83BAF1000F00F0C0
:104F98001C84012B00F02083022B00F052842CA9E2
:104FA800F20842EA4772F80806F007030746164671
:104FB800303356EA070201F8013DF1D1029A0A910D
:104FC800D00700F1F9842CAB5B1A0793079A924536
:104FD8005346B8BF1346039300230C93BCF1000F4C
:104FE80002D0039B01330393029B13F0020309933E
:104FF80002D0039B02330393029B13F0840640F014
:10500800E082069B039AC2EB030ABAF1000F40F351
:10501800D882BAF1100F2199209AB34FC8BF4FF028
:10502800100B07DC1EE0AAF1100ABAF1100F04F108
:10503800080417DD01321031072A2191209284E8F3
:105048008008F0DD404649461FAA03F013FF0028F8
:105058007FF466AFAAF1100ABAF1100F2199209ACD
:105068002CACE7DC01320AEB010B072ACDF884B03F
:10507800209284E8800400F34A849DF85FC00834D5
:10508800BCF1000F0FD0209B01330BF1010B0DF188
:105098005F010122072BCDF884B0209384E8060035
:1050A80000F3B1830834099B73B1209B01330BF1E2
:1050B800020B18A90222072BCDF884B0209384E8AC
:1050C800060000F3AC830834802E00F0F0820B9BBE
:1050D800079AC2EB030ABAF1000F32DDBAF1100FDA
:1050E800209A824F22DD10265B4606E0AAF1100ABC
:1050F800BAF1100F04F1080417DD01321033072A42
:105108002193209227606660F0DD404649461FAA39
:1051180003F0B0FE00287FF403AFAAF1100ABAF139
:10512800100F219B209A2CACE7DC9B460132D3441C
:10513800072ACDF884B0209284E8800400F35783CE
:105148000834029BDB0500F15B82209B07990A9AD1
:10515800226001338B44072BCDF884B06160209323
:1051680000F31D830834029B59073AD5069B039A1E
:105178009D1A002D35DD102D209B5B4F1EDD10265E
:105188005A4604E0103D102D04F1080415DD0133E2
:105198001032072B2192209327606660F2DD40468B
:1051A80049461FAA03F066FE00287FF4B9AE103DF9
:1051B800102D219A209B2CACE9DC93460133AB449B
:1051C800072BCDF884B020932760656009DD404641
:1051D80049461FAA03F04EFE00287FF4A1AEDDF871
:1051E80084B0059B039A06998A42ACBF9B185B184A
:1051F8000593BBF1000F40F0DE82002320932CAC16
:10520800CFE5194602981D7840F004000290F8E5B1
:105218000493029B13F02003B24600F07381089FA9
:10522800073727F0070303F10802D3E9006708925C
:10523800002399E6089A049313680A934FF0000B29
:105248008DF85FB0171D002B00F05E86002E0A98BF
:10525800C0F212865946324602F096FF002800F046
:105268008F860A9BCDF82CB0C31A0793089723EAB8
:10527800E3730393CDF830B09DF85FC0AEE60493B6
:105288001B4B1093029B8DF85F209906B24640F1A4
:105298005581089F073727F00703D3E9006703F113
:1052A80008020892029BDB0740F1E48256EA0703F2
:1052B80000F0E082029A8DF86150302342F0020239
:1052C8008DF86030029202234EE61D781946002AB6
:1052D8007FF497AD202294E5029941F020010291D4
:1052E8001D7819468DE500BF288E0108D48D010868
:1052F800088E01080493029B8DF85F2043F0100389
:105308000293029B9806B24640F1A280089F073795
:1053180027F00707D7E9002307F108010891164687
:105328001F46002A73F10003C0F21C849DF85FC079
:10533800CDF82CA001231DE60493029B089F8DF84D
:105348005F201B07B246B34607F1070740F19B846D
:1053580027F0070393ED007B8DED0E7B03F1080228
:1053680008929DED0E0B03F0D9FC012840F008844B
:10537800DDE90E0100220023FBF7D4FB002840F0F2
:10538800EC859DF85FC0029E994A9A4B0321002044
:1053980026F08006472DD8BF1A4603910B90029637
:1053A8000A9207910C9019E6029941F008010291BE
:1053B8001D78194625E51D7819462B2221E5029905
:1053C80041F0800102911D7819461AE5A5F13000D7
:1053D800002113F8015B01EB810100EB4101A5F10C
:1053E80030000928F5D906910CE508990493302373
:1053F800029A8DF860300B460433782542F0020299
:1054080008937D4B1093B24602920E688DF8615056
:1054180000270223A8E5029941F0010102911D78B5
:105428001946EEE4089D2968069108460028294691
:1054380001F10401C0F2EE8408911D781946E0E4F8
:105448000493029B8DF85F209806B2463FF55EAF45
:10545800029BD90600F19B82029B5A0640F1978273
:105468000899B1F900600431F71732463B460891B4
:1054780057E7029941F0400102911D781946C0E4AE
:105488001D7802996C2D00F0BE8441F01001029144
:105498001946B6E40493029B8DF85F209A0640F102
:1054A800FD83089A05991368CF17084604323946D0
:1054B8000892C3E9000174E41D782A2D03F1010163
:1054C80000F02A86A5F1300009280B464FF00006A7
:1054D8003FF698AC13F8015B06EB860600EB460630
:1054E800A5F130000928F5D946EAE6768AE404935E
:1054F800029B43F010030293029B13F02003B24671
:105508007FF48DAE029A12F0100240F03882029BAE
:1055180013F0400300F03382089913460A46043218
:105528000E88089200271FE50493344B1093029BC2
:105538008DF85F209906B2463FF5ABAE029BDA06BE
:1055480040F1D183089A134604331668089300275C
:10555800A8E6089904930A688DF888200023012298
:1055680004319C46039208918DF85F3022ABCDF848
:105578002CC0CDF830C007920A9335E50493029BFE
:1055880043F010030293029BB2469E063FF5E2AC3D
:10559800029BD80640F19983089A134604321E6884
:1055A800089201230027DFE404938DF85F20002D83
:1055B8003FF4AFAC002301229C4603928DF888503B
:1055C800D2E7DDF884B05BE5012B7FF4E5AC002F72
:1055D80008BF0A2E80F0FF810DF1F00B30360BF872
:1055E800416D2CABCBEB03030793CDF828B0EDE46A
:1055F800E88D0108E48D0108088E0108F48D010882
:10560800652D40F38A80DDE90E0100220023FBF7B7
:105618007FFA002800F03181209BAE4A22600133D6
:105628000BF1010B0122072BCDF884B020936260A7
:1056380000F372830834199B0D9A934203DB029B93
:10564800DF077FF590AD209B1299119A22600133F4
:105658008B44072BCDF884B06160209300F3E1837D
:1056680008340D9B5D1E002D7FF77DAD102D209B0E
:10567800994F40F3968110265A4604E00834103DAD
:10568800102D40F38D8101331032072B2192209386
:1056980027606660F2DD404649461FAA03F0EAFB30
:1056A80000287FF43DAC219A209B2CACE7E7069BB1
:1056B800039A9E1A002E7FF70AAD102E209A864F65
:1056C8001FDD4FF0100A5B4604E0103E102E04F177
:1056D800080415DD01321033072A2193209284E84B
:1056E8008004F2DD404649461FAA03F0C3FB0028A8
:1056F8007FF416AC103E102E219B209A2CACE9DCCE
:105708009B460132B344072ACDF884B02092276023
:10571800666000F31A820834D9E40D9B209D012BA2
:1057280040F3D5810A9B236001350BF10106012363
:10573800072D21962095636000F3E5810834129ABD
:10574800119B236001351644072D21962095626030
:1057580000F3EF8108340023DDE90E010022FBF796
:10576800D7F90D9B002840F0E1800A9A013B0135EA
:1057780001321E44072D209521962260636000F3B4
:10578800B6810834139A6260013506EB020B1BAB35
:10579800072DCDF884B0209523607FF7E3AC404611
:1057A80049461FAA03F066FB00287FF4B9ABDDF871
:1057B80084B02CACD7E4404649461FAA03F05AFBF4
:1057C80000283FF41AADFFF7ABBB002B33D1029B87
:1057D800DA0730D50DF1F00B30230BF8413D2CAB37
:1057E800CBEB03030793CDF828B0FFF7EFBB404698
:1057F80049461FAA03F03EFB00287FF491ABDDF871
:1058080084B02CAC9DE4404649461FAA03F032FB05
:1058180000287FF485ABDDF884B02CAC43E4404627
:1058280049461FAA03F026FB00287FF479ABDDF870
:1058380084B02CAC48E42CABCDF81CA00A93FFF73D
:10584800C5BB10980DF1B00B330906F00F0143EA00
:1058580007733A091E461746435C0BF8013D56EAA2
:105868000703F1D15A462CAB9B1ACDF828B0079301
:10587800FFF7ACBB0223FFF777BB199D002D40F360
:1058880057820D9A0C998A421346A8BF0B461D46AB
:105898000A99002D01EB020A0BDD209B21600133E0
:1058A800AB44072BCDF884B06560209300F30983DF
:1058B80008340C9B002DA8BF5B1B002B1D4640F332
:1058C800B080102D209B044F40F31A8210265A46B0
:1058D80009E000BF248E0108D48D01080834103D6A
:1058E800102D40F30C8201331032072B21922093A4
:1058F80027606660F2DD404649461FAA03F0BAFAFF
:1059080000287FF40DAB219A209B2CACE7E740469A
:1059180049461FAA03F0AEFA00287FF401AB9DF8B0
:105928005FC0DDF884B02CACFFF7AABB03F1FF3AE7
:10593800BAF1000F7FF726AFBAF1100F8F4FC8BF2B
:105948004FF0100B07DCEAE00834AAF1100ABAF1AC
:10595800100F40F3E48001351036072D219620956D
:1059680084E88008F0DD404649461FAA03F082FA21
:1059780000287FF4D5AA219E209D2CACE5E7089944
:105988000A4604320E6808920027FFF7EDBA089A13
:10599800166813460433F717089332463B46C0E4AB
:1059A80093460133AB44072BCDF884B0209327608E
:1059B80065607FF7D7ABF2E6302B00F03E820A9B9A
:1059C800013B1A462CA80A93821A3023079201F841
:1059D800013CFFF7FBBA0DF1B00BCDF80CC0304617
:1059E80039460A220023FBF787F930323046394618
:1059F8000BF8012D00230A22FBF77EF906460F4615
:105A080056EA0703EBD1DDF80CC02BE740464946C0
:105A18001FAA03F02FFA00287FF482AADDF884B0C9
:105A28002CAC0A9A0C99199B0A4416460D9A934273
:105A38003EDB029AD5073BD40D9AC6EB0A05D31A6A
:105A48009D42A8BF1D46002D2F460BDD209A2660DB
:105A58000132AB44072ACDF884B06560209200F388
:105A680066820834002FACBFDD1B1D46002D7FF772
:105A78007AAB102D209B414F93DD10265A4603E048
:105A88000834103D102D8BDD01331032072B219285
:105A9800209327606660F3DD404649461FAA03F05D
:105AA800E9F900287FF43CAA219A209B2CACE8E76E
:105AB800209A12981199216001328344072ACDF85F
:105AC80084B06060209200F308820834B4E7029B37
